:100000000C944D000C946A000C946A000C946A00E5
:100010000C946A000C946A000C946A000C946A00B8
:100020000C946A000C946A000C946A000C946A00A8
:100030000C946A000C946A000C946A000C946A0098
:100040000C946A000C946A000C946A000C946A0088
:100050000C946A000C946A000C946A000C946A0078
:100060000C946A000C946A00AED580A81FD300409F
:100070008D14A1C8DA02817FD922DB402000A4A61A
:10008000AFAE2000C840817FA1A6A83FD300D58095
:10009000D922DA12DB208D14A4AF11241FBECFEFBA
:1000A000D8E0DEBFCDBF11E0A0E0B1E0EEE1FAE0C4
:1000B00002C005900D92A231B107D9F721E0A2E16B
:1000C000B1E001C01D92A732B207E1F70E946C00B7
:1000D0000C940D050C9400000E945D0180E090E0FE
:1000E0000895089508950F931F93CF93DF93C82F1A
:1000F000D62F8A01E0910801F091090109958091BC
:100100000701882321F080E00E94780206C0E09178
:100110000C01F0910D0180E00995E0910C01F09146
:100120000D0181E20995E0910C01F0910D018C2FF8
:100130000995E0910C01F0910D010115110521F0D7
:100140008FEF800F8C0F03C08091150181500995AE
:10015000E0910C01F0910D0182E20995E0910C0112
:10016000F0910D018D2F0995809117019091180143
:1001700023E0969587952A95E1F7E0910C01F0919F
:100180000D018150099580910701882339F081E0A4
:10019000DF91CF911F910F910C947802E0910A01A9
:1001A000F0910B010995E0910801F0910901099581
:1001B000E0910C01F0910D0180E4DF91CF911F914E
:1001C0000F9109948EEA0C9488038FEA0C948803AB
:1001D0001F93CF93DF93182F0E946403C7E0D1E0F1
:1001E000ED81FE8181E80995ED81FE81812F0995E0
:1001F000EB81FC81DF91CF911F91099487EA0C94E8
:10020000880386EA0C948803882311F080EA01C0F1
:1002100081EA0C948803811102C088EC01C080EC53
:100220000C948803809312018F7380640C9488036C
:10023000809112010895CF93DF93109214011092D0
:10024000130180E490E0909318018093170180E8F7
:1002500090E0909316018093150183E790E09093CE
:100260001A018093190181E790E090931C0180931B
:100270001B0180910C0190910D0190931E018093C0
:100280001D0180910E0190910F01909320018093A8
:100290001F0182E790E09093260180932501C1E839
:1002A000D0E0FE0184910E9488032196F0E0CA39D3
:1002B000DF07B9F7DF91CF9108950E94D9010C941F
:1002C0001B010C945D010E94C7010C941B01CF938C
:1002D000DF93C62FD42F87FD03C06AE00E947A0403
:1002E0006D2F8C2F0E947602DF91CF910C941B0111
:1002F000CF93DF93109214011092130180E290E0EB
:10030000909318018093170180E890E09093160174
:100310008093150183E790E090931A01809319016F
:1003200081E790E090931C0180931B0180910C0168
:1003300090910D0190931E0180931D0182E790E042
:100340009093260180932501C8E6D0E0FE018491B8
:100350000E9488032196F0E0C138DF07B9F7DF91EA
:10036000CF9108950E94D9010C947801CF93DF9327
:10037000C62FD42F87FD03C06AE00E947A046D2F38
:100380008C2F0E947602DF91CF910C947801CF934D
:10039000C42F80E00E9445028C2FCF910C94520212
:1003A000CF93C22F80E00E9445028C2FCF910C94F6
:1003B000520280E00E9445028CE30C94520290E4C9
:1003C00024EA2093BC008091BC0087FFFCCF809181
:1003D000B900887F915019F4883021F405C0883322
:1003E00081F3FACF803109F480E0089524E8809306
:1003F000BB002093BC009091BC0097FFFCCF909174
:10040000B900987F983131F0983221F0983379F71C
:1004100088E3089580E008950E94DF01811107C0FC
:1004200080910001880F0E94F6018833A9F3089596
:1004300084E98093BC000895CF93C82F8C2F0E942D
:10044000F601883359F40E94DF01811107C08091C1
:100450000001880F0E94F601883381F3CF9108953F
:100460000F931F93CF93DF93EC018C01060F171F9F
:10047000C017D10721F089910E941C02F9CFDF91AA
:10048000CF911F910F91089508953C98449A3D98FB
:10049000459A1092B9008CE08093B80084E4809370
:1004A000BC000895811180930001109207018CE037
:1004B00092E0909309018093080188E192E0909383
:1004C0000B0180930A018CE192E090930D018093DF
:1004D0000C0180E392E090930F0180930E0184E47D
:1004E00092E0909311018093100108950C94C90239
:1004F00090910501992359F061E070E0811102C0EB
:1005000060E070E0892F990F990B0C94B504089561
:1005100008958EBD00000DB407FEFDCF0895680F4D
:10052000791F8617970751F0FC012191CF012EBD4D
:1005300000000DB407FEFDCF2EB5F3CF08958091D6
:10054000130190911401019761F48091050160E01D
:1005500070E0082E000C990B0E94B50480E00E9408
:1005600089028091060187FD07C061E070E0082ED6
:10057000000C990B0C94B50408958091060187FD39
:1005800007C060E070E0082E000C990B0C94B504D5
:1005900008950F931F93CF93DF93D82FC62F87FD16
:1005A00071C061E070E0082E000C990B0E94E1041C
:1005B000C7FD64C061E070E08C2F0C2E000C990B1D
:1005C0000E94E104D111D0930601C111C09305012D
:1005D00081E08093070100910101109102012091B7
:1005E00003013091040190E040E052E16AE770E0DD
:1005F000041715072607370740F476956795579532
:1006000047959F5F9630A1F797E081E0892794B1E5
:10061000937D94B92A9A94B19C6294B92A9A982F9E
:10062000969590659CBD81708DBD6AE070E080E01C
:1006300090E00E94A4048DEB92E0909309018093D6
:1006400008018FE992E090930B0180930A0189E8F9
:1006500092E090930D0180930C018FE892E09093CB
:100660000F0180930E0188E892E09093110180932E
:100670001001DF91CF911F910F910895DD2309F4AF
:10068000A5CFA1CF67FD9FCF61E070E08C2F0C2E2E
:10069000000C990B0E94E10496CF0F931F93CF9308
:1006A000DF93EC018C01060F171FC017D10739F03B
:1006B000E0910C01F0910D0189910995F6CFDF9140
:1006C000CF911F910F910895E0910801F0910901D8
:1006D000099580910701882319F080E00C94780235
:1006E000E0910C01F0910D0180E00994E091080186
:1006F000F0910901099580910701882319F081E0A3
:100700000C947802E0910C01F0910D0180E40994C1
:100710001F93CF93DF93182F0E946403C7E0D1E0AB
:10072000ED81FE81812F0995EB81FC81DF91CF91D5
:100730001F910994CF93C82F0E947603E0911D0169
:10074000F0911E018C2F0995E0910A01F0910B01A7
:10075000CF910994FF920F931F93CF93DF93F82EBD
:10076000092F162F0E946403CF2DD02FCE01810FA9
:10077000911D8C01C017D10749F0FE018491E091D1
:100780000C01F0910D0109952196F4CFE0910A0139
:10079000F0910B01DF91CF911F910F91FF90099480
:1007A000FF920F931F93CF93DF938C01F62EE0916E
:1007B0000801F0910901099580E00E947802C0E0EB
:1007C000CF15F8F4F801EC0FF11D84918F3F91F4EF
:1007D000CF5FF801EC0FF11DD49181E00E94780207
:1007E000E0910C01F0910D018D2F099580E00E94A0
:1007F000780205C0E0910C01F0910D010995CF5FE1
:10080000DFCFE0910A01F0910B01DF91CF911F91B1
:100810000F91FF900994DF92EF92FF920F931F9335
:10082000CF93DF93F82ED92FC62FE0910801F091D6
:100830000901099580E00E9478020F2D1D2F780193
:10084000EC0EF11CDD24DA94D1E0E016F10609F497
:100850003DC0F801C491DD23D1F0DF3F71F4CF3FFB
:1008600029F06C2F70E080E090E004C064EF71E04C
:1008700080E090E00E94A40425C0E0910C01F0917A
:100880000D018C2F0995DD24DA94D0E01CC0FFEF18
:10089000DF1209C0C7FD14C0CC23A1F081E00E9483
:1008A0007802DC2E10C0DA94E0910C01F0910D0179
:1008B0008C2F0995D11007C080E00E94780202C0F9
:1008C000DC2F01C0D1E00F5F1F4FBFCFE0910A01C5
:1008D000F0910B01DF91CF911F910F91FF90EF905D
:1008E000DF900994E0912501F0912601309709F0FD
:1008F000099408951F93CF93DF93162FC82F880F65
:10090000DD0B61E070E0CE010E94E10461E070E087
:10091000CE010E94B5046AE070E080E090E00E94A1
:10092000A40460E070E0CE010E94B504612F70E085
:1009300080E090E00E94A40461E070E0CE01DF91CD
:10094000CF911F910C94B504611571058105910536
:1009500059F0EFE9FFE03197F1F700C00000615076
:10096000710981099109F0CF0895AC0147705527AD
:1009700021E030E001C0220F4A95EAF78830910566
:1009800054F48BB16130710511F4282B02C020950D
:1009900028232BB90895409754F485B1613071052F
:1009A00011F4282B02C02095282325B9089588B179
:1009B0006130710511F4282B02C02095282328B935
:1009C0000895AC014770552721E030E001C0220FA7
:1009D0004A95EAF78830910554F48AB1613071057F
:1009E00011F4282B02C0209528232AB90895409796
:1009F00054F484B16130710511F4282B02C02095A4
:100A0000282324B9089587B16130710511F4282B8A
:0E0A100002C02095282327B90895F894FFCF3F
:100A1E003C00127A000504000000000000004D03A7
:020A2E000000C6
:00000001FF
